:1000000071C0000079C00000A3C00000AFC00000B4
:10001000C0C00000CCC00000DEC00000F8C000007E
:100020006BC0000069C0000067C0000065C0000030
:1000300063C0000061C000005FC000005DC0000040
:100040005BC0000059C0000057C0000055C0000050
:10005000F3C0000051C000004FC000004DC00000C0
:100060004BC0000049C0000047C0000045C0000070
:1000700043C0000041C000003FC000003DC0000080
:100080003BC0000039C0000037C0000035C0000090
:1000900033C0000031C000002FC000002DC00000A0
:1000A0002BC0000029C0000027C0000025C00000B0
:1000B00023C0000021C000001FC000001DC00000C0
:1000C0001BC0000019C0000017C0000015C00000D0
:1000D00013C0000011C000000FC000000DC00000E0
:1000E0000BC0000011241FBECFEFD1E2DEBFCDBF99
:1000F00000E00CBF02D0BBC083CFF8948FEF84B96F
:100100001DB810BA1AB883E081B990E690937C00CC
:1001100097E890937A0010927B009FE39DBB8093B9
:10012000690085E08093810081E080936F00E1ECBD
:10013000F0E088E4808380E9808386E08093C200D9
:1001400087E48093C4007894FFCF80E090E0089526
:100150001F920F920FB60F9211248F9381E085B9F1
:100160008F910F900FBE0F901F9018951F920F92B6
:100170000FB60F9211248F93289B03C083E085B99B
:1001800002C081E085B98F910F900FBE0F901F9034
:1001900018951F920F920FB60F9211248F9387E03C
:1001A00085B98F910F900FBE0F901F9018951F92D9
:1001B0000F920FB60F9211248F938BE085B985E8CB
:1001C000809385008EEE809384008F910F900FBEF8
:1001D0000F901F9018951F920F920FB60F92112437
:1001E0008F9385B1893059F48BE085B981E285B967
:1001F00085E8809385008EEE8093840002C087E0BE
:1002000085B98F910F900FBE0F901F9018951F9278
:100210000F920FB60F9211248F935D9B05C08BE058
:1002200085B984E085B902C087E085B98F910F90C8
:100230000FBE0F901F9018951F920F920FB60F923E
:1002400011248F9385B1813129F481E085B987E04C
:1002500085B907C085B1813221F481E085B987E095
:1002600085B98F910F900FBE0F901F901895F8943D
:02027000FFCFBE
:00000001FF
