:020000020000FC
:040000000C9430002C
:10005C000C944A0000E600937C0007E800937A00B9
:10006C000FEF04B900E000BB05E005BD01E0009313
:10007C006E0078940FEE06BD00917A000064009338
:10008C007A0000000C94470000917A0004FF0C9455
:10009C004A009091780000917900202F26952695A2
:1000AC0030910400532F36954091050046954695A6
:1000BC00230F240F25B91FEE16BD10917A00106482
:0E00CC0010937A0050930500009304001895DD
:00000001FF
