S01100004C41426D6963726F322E73726563F8
S113000071C0000081C000007FC000007DC00000FE
S11300107BC0000079C0000077C0000075C00000FC
S113002073C0000071C000006FC000006DC000000C
S11300306BC0000069C0000067C0000065C000001C
S113004063C0000061C000005FC000005DC000002C
S11300505BC0000059C0000057C000007AC0000017
S113006053C00000CEC000004FC000004DC00000CF
S11300704BC0000049C0000047C0000045C000005C
S113008043C0000041C000003FC000003DC000006C
S11300903BC0000039C0000037C0000035C000007C
S11300A033C0000031C000002FC000002DC000008C
S11300B02BC0000029C0000027C0000025C000009C
S11300C023C0000021C000001FC000001DC00000AC
S11300D01BC0000019C0000017C0000015C00000BC
S11300E013C0000011241FBECFEFD1E2DEBFCDBF8D
S11300F000E00CBF22E0A0E0B2E001C01D92A130FC
S1130100B207E1F702D016C27BCF8FEF84B981E04A
S11301108DB910BA90E690937C00EAE7F0E097E896
S1130120908310927B0095E095BD80936E00789447
S113013080E98093C10086E08093C20087E68093C3
S1130140C4008FEE86BD87EC8083FFCF80E090E013
S113015008951F920F920FB60F9211240BB60F92AF
S11301602F933F934F935F936F937F938F939F93BB
S1130170AF93BF93EF93FF9300917A0004FFFCCFFA
S1130180909178006091790070E080E090E0E3D095
S113019020E030E040E85EE36AD120E030E0A901ED
S11301A048D020E030E0A90144D0A7D065B98091BF
S11301B00002813631F48FEE86BD87EC80937A009D
S11301C00DC0833731F48FED86BD87EC80937A00C0
S11301D005C08FEE86BD87EC80937A00FF91EF9186
S11301E0BF91AF919F918F917F916F915F914F914B
S11301F03F912F910F900BBE0F900FBE0F901F9049
S113020018951F920F920FB60F9211248F9300919D
S1130210C00007FFFCCF8091C6008093000280E2FB
S11302208093C0008F910F900FBE0F901F90189570
S11302305058BB27AA270ED0E0C0D1D030F0D6D07A
S113024020F031F49F3F11F41EF4C6C00EF4E09583
S1130250E7FBBCC0E92FE2D080F3BA17620773074B
S11302608407950718F071F49EF5FAC00EF4E09532
S11302700B2EBA2FA02D0B01B90190010C01CA015C
S1130280A0011124FF27591B99F0593F50F4503E07
S113029068F11A16F040A22F232F342F4427585FF9
S11302A0F3CF469537952795A795F0405395C9F711
S11302B07EF41F16BA0B620B730B840BBAF09150C9
S11302C0A1F0FF0FBB1F661F771F881FC2F70EC068
S11302D0BA0F621F731F841F48F48795779567953B
S11302E0B795F7959E3F08F0B3CF9395880F08F024
S11302F09927EE0F97958795089598D088F09F5782
S113030090F0B92F9927B751A0F0D1F0660F771F5D
S1130310881F991F1AF0BA95C9F712C0B13081F03D
S11303209FD0B1E008959CC0672F782F8827B85FCD
S113033039F0B93FCCF3869577956795B395D9F79E
S11303403EF490958095709561957F4F8F4F9F4FA8
S11303500895E89409C097FB3EF4909580957095B4
S113036061957F4F8F4F9F4F9923A9F0F92F96E9FD
S1130370BB279395F695879577956795B795F11172
S1130380F8CFFAF4BB0F11F460FF1BC06F5F7F4F0F
S11303908F4F9F4F16C0882311F096E911C0772321
S11303A021F09EE8872F762F05C0662371F096E82A
S11303B0862F70E060E02AF09A95660F771F881FF9
S11303C0DAF7880F9695879597F9089597F99F67B7
S11303D080E870E060E008959FEF80EC08950024C9
S11303E00A941616170618060906089500240A9496
S11303F012161306140605060895092E0394000C1C
S113040011F4882352F0BB0F40F4BF2B11F460FFAA
S113041004C06F5F7F4F8F4F9F4F089557FD9058D3
S1130420440F551F59F05F3F71F04795880F97FBB4
S1130430991F61F09F3F79F087950895121613066E
S11304401406551FF2CF4695F1DF08C0161617069D
S11304501806991FF1CF86957105610508940895D2
S1130460E894BB2766277727CB0197F908950BD02B
S1130470C4CFB5DF28F0BADF18F0952309F0A6CF72
S1130480ABCF1124EECFCADFA0F3959FD1F3950F24
S113049050E0551F629FF001729FBB27F00DB11D04
S11304A0639FAA27F00DB11DAA1F649F6627B00D94
S11304B0A11D661F829F2227B00DA11D621F739F7D
S11304C0B00DA11D621F839FA00D611D221F749F8B
S11304D03327A00D611D231F849F600D211D822FD2
S11304E0762F6A2F11249F5750408AF0E1F0882319
S11304F04AF0EE0FFF1FBB1F661F771F881F915026
S11305005040A9F79E3F510570F060CFAACF5F3FDE
S1130510ECF3983EDCF3869577956795B795F79558
S1130520E7959F5FC1F7FE2B880F911D96958795E0
S10B053097F90895F894FFCF38
S9030000FC
