:1000000007C1000033C1000031C100002FC1000052
:100010002DC100002BC1000029C1000027C1000034
:1000200025C1000023C1000021C100001FC1000044
:100030001DC100001BC1000019C1000017C1000054
:1000400015C1000013C1000011C100000FC1000064
:100050002DC100000BC1000009C100005CC40000FC
:1000600005C10000BFC20000F3C20000FFC00000D5
:10007000FDC00000FBC00000F9C00000F7C0000098
:10008000F5C00000F3C00000F1C00000EFC00000A8
:10009000EDC00000EBC00000E9C00000E7C00000B8
:1000A000E5C00000E3C00000E1C00000DFC00000C8
:1000B000DDC00000DBC00000D9C00000D7C00000D8
:1000C000D5C00000D3C00000D1C00000CFC00000E8
:1000D000CDC00000CBC00000C9C00000C7C00000F8
:1000E000C5C0000051055405430547054D058B0566
:1000F00058055C05620566056A0570057405780596
:100100008B057E058205860500000A0B02090C0D91
:100110000E080703040100000000000000000000BA
:1001200000000000000000000000000000000000CF
:10013000000000001211100000000000000000008C
:1001400000000000000000000000000000000102AC
:1001500010202008081020401020408002010201D9
:100160000804020101020408102040808040201091
:1001700008040201800402018040201008040201EA
:100180000804020101020408102040800102040852
:10019000102040800505050507050808080802022B
:1001A00002020A0A08080404040401010101010111
:1001B00001010303030303030303040707070C0CF4
:1001C0000C0C0C0C0C0C02020202060606060606BB
:1001D00006060B0B0B0B0B0B0B0B00002200250074
:1001E00028002B002E003100340002010000050120
:1001F00008010B0100002100240027002A002D0027
:100200003000330001010000040107010A015A0314
:1002100011241FBECFEFD1E2DEBFCDBF00E00CBF87
:1002200012E0A0E0B2E0E6E4FCE000E00BBF02C0B8
:1002300007900D92AA32B107D9F722E0AAE2B2E004
:1002400001C01D92A43DB207E1F711E0C8E0D1E082
:1002500000E005C021970109802FFE01EAD4C730D4
:10026000D10780E00807B1F753D2EBC4C9CE26E02E
:1002700040E052EC61E070E08EE292E050D161E04B
:100280008DE04AD405E00093810000E000938500F2
:1002900000E00093840001E000936F0078940895DB
:1002A00061E08DE075D460E08DE072C41F920F9222
:1002B0000FB60F9211240BB60F922F933F934F93CB
:1002C0005F936F937F938F939F93AF93BF93EF93BE
:1002D000FF9300E00093850000E00093840080918C
:1002E0002A0290912B02019690932D0280932C026A
:1002F00090932B0280932A0260E072E08EE292E0FB
:1003000051D260912C0270912D024AE050E08EE2B1
:1003100092E0ECD2FF91EF91BF91AF919F918F91BD
:100320007F916F915F914F913F912F910F900BBEF5
:100330000F900FBE0F901F901895FC01918D228D8C
:10034000892F90E0805C9F4F821B91098F739927C2
:100350000895FC01918D828D981731F0828DE80F00
:10036000F11D858D90E008958FEF9FEF0895FC01BA
:10037000918D828D981761F0828DDF01A80FB11DDC
:100380005D968C91928D9F5F9F73928F90E0089500
:100390008FEF9FEF089581E593E0892B39F080E09E
:1003A00090E0892B19F07DD1811125C080E090E08B
:1003B000892B41F080E090E0892B21F00E94000021
:1003C00081111CC080E090E0892B41F080E090E03A
:1003D000892B21F00E940000811113C080E090E081
:1003E000892BA1F080E090E0892B81F00E94000031
:1003F00081110AC008950E940000D8CF0E94000019
:10040000E1CF0E940000EACF0C9400000895FC01A7
:10041000848DDF01A80FB11DA35ABF4F2C91848D8D
:1004200090E001968F739927848FA689B7892C93C2
:10043000A089B1898C9180648C93938D848D98135D
:1004400006C00288F389E02D80818F7D8083089526
:10045000CF93DF93EC01888D8823C1F0EA89FB8973
:10046000808185FD05C0A889B9898C9186FD0EC063
:100470000FB607FCF5CF808185FFF2CFA889B98937
:100480008C9185FFEDCFCE01C2DFE8CFDF91CF9118
:100490000895EF92FF920F931F93CF93DF93EC0198
:1004A00081E0888F9B8D8C8D981305C0E889F98930
:1004B000808185FD23C0F62E0B8D10E00F5F1F4F4E
:1004C0000F731127E02E8C8DE8120BC00FB607FCBE
:1004D000FACFE889F989808185FFF5CFCE0197DFD2
:1004E000F2CF8B8DFE01E80FF11DE35AFF4FF08232
:1004F0000B8FEA89FB898081806207C0EE89FF89C2
:100500006083E889F98980818064808381E090E05C
:10051000DF91CF911F910F91FF90EF900895CF92AF
:10052000DF92EF92FF921F93CF93DF93EC016A016A
:100530007B01122FE889F98982E080834115514EB1
:1005400061057105A9F060E079E08DE390E0A70115
:1005500096014DD3DA01C9010197A109B109B695F8
:10056000A79597958795AC01411580E15807A0F0B4
:10057000E889F989108260E874E88EE190E0A701CB
:10058000960135D3BA01A901415051096109710998
:100590007695679557954795EC85FD855083EE8553
:1005A000FF854083188EEC89FD891083EA89FB89D9
:1005B000808180618083EA89FB8980818860808373
:1005C000EA89FB89808180688083EA89FB89808150
:1005D0008F7D8083DF91CF911F91FF90EF90DF900F
:1005E000CF9008951F920F920FB60F9211240BB661
:1005F0000F922F938F939F93EF93FF93E0913E027F
:10060000F0913F028081E0914402F091450282FD29
:1006100012C09081809147028F5F8F7320914802B2
:10062000821751F0E0914702F0E0E25DFD4F958FB7
:100630008093470201C08081FF91EF919F918F913C
:100640002F910F900BBE0F900FBE0F901F9018951B
:100650001F920F920FB60F9211240BB60F922F9389
:100660003F934F935F936F937F938F939F93AF933A
:10067000BF93EF93FF938EE292E0C9DEFF91EF917B
:10068000BF91AF919F918F917F916F915F914F91AA
:100690003F912F910F900BBE0F900FBE0F901F90A8
:1006A00018958EE292E049DE21E0892B09F420E0E2
:1006B000822F0895EEE2F2E01382128288EE93E038
:1006C000A0E0B0E084839583A683B7838DE092E0B9
:1006D0009183808385EC90E09587848784EC90E01B
:1006E0009787868780EC90E0918B808B81EC90E0FF
:1006F000938B828B82EC90E0958B848B86EC90E0E0
:10070000978B868B118E128E138E148E08950895FA
:100710004CD1FDDFACDDCBECD1E0C2DD2097E9F3BD
:100720003ADEFBCFCF92DF92EF92FF920F931F93AF
:10073000CF93DF936C017A018B01C0E0D0E0CE153E
:10074000DF0589F0D8016D918D01D601ED91FC9105
:100750000190F081E02DC6011995892B11F47E01DD
:1007600002C02196ECCFC701DF91CF911F910F916D
:10077000FF90EF90DF90CF9008956115710579F0AB
:10078000FB0101900020E9F73197AF01461B570BA1
:10079000DC01ED91FC910280F381E02D199480E061
:1007A00090E00895EACFDC01ED91FC910190F08199
:1007B000E02D199469E172E0E0CF8F929F92AF92A1
:1007C000BF92CF92DF92EF92FF920F931F93CF933E
:1007D000DF93CDB7DEB7A1970FB6F894DEBF0FBE9B
:1007E000CDBF7C01D42EC52EDB0119A2223008F426
:1007F0002AE08E010F5D1F4F822E912CA12CB12C6F
:100800006D2D7C2DCD01A5019401F1D1D22EC32EE9
:10081000DA01015011096A3071058105910510F462
:10082000605D01C0695CF8016083232B242B252BBC
:1008300039F7B801C701A1DFA1960FB6F894DEBF62
:100840000FBECDBFDF91CF911F910F91FF90EF9021
:10085000DF90CF90BF90AF909F908F900895CF92F0
:10086000DF92EF92FF920F931F93CF93DF93EC01F0
:100870006A017B012115310579F4E881F981019044
:10088000F081E02D642FDF91CF911F910F91FF90A8
:10089000EF90DF90CF9019942A303105D9F477FF8B
:1008A00018C06DE280DF8C0144275527BA014C192E
:1008B0005D096E097F092AE0CE017FDF800F911F5D
:1008C000DF91CF911F910F91FF90EF90DF90CF902C
:1008D00008952AE0B701A601CE01DF91CF911F91C3
:1008E0000F91FF90EF90DF90CF9067CF0F931F9302
:1008F000CF93DF93EC019A01AB01770F660B770B77
:10090000AEDF8C01CE0156DF800F911FDF91CF91BA
:100910001F910F9108951F920F920FB60F921124FD
:100920002F933F938F939F93AF93BF938091CC026C
:100930009091CD02A091CE02B091CF023091CB0226
:1009400023E0230F2D3720F40196A11DB11D05C012
:1009500026E8230F0296A11DB11D2093CB028093A0
:10096000CC029093CD02A093CE02B093CF0280919F
:10097000D0029091D102A091D202B091D3020196FF
:10098000A11DB11D8093D0029093D102A093D202F9
:10099000B093D302BF91AF919F918F913F912F91CF
:1009A0000F900FBE0F901F901895789484B58260B9
:1009B00084BD84B5816084BD85B5826085BD85B503
:1009C000816085BDEEE6F0E0808181608083E1E8B2
:1009D000F0E01082808182608083808181608083EA
:1009E000E0E8F0E0808181608083E1EBF0E08081ED
:1009F00084608083E0EBF0E0808181608083E1E9C6
:100A0000F0E0808182608083808181608083E0E982
:100A1000F0E0808181608083E1EAF0E080818260A3
:100A20008083808181608083E0EAF0E08081816062
:100A30008083E1E2F1E08081826080838081816057
:100A40008083E0E2F1E0808181608083EAE7F0E08A
:100A500080818460808380818260808380818160E6
:100A600080838081806880831092C100089590E027
:100A7000FC013197E231F10508F04DC08827EE58AE
:100A8000FF4F8F4FD6C0809180008F7703C0809139
:100A900080008F7D80938000089580918000877F03
:100AA000F9CF84B58F7702C084B58F7D84BD08955A
:100AB0008091B0008F7703C08091B0008F7D8093CC
:100AC000B0000895809190008F7707C080919000CA
:100AD0008F7D03C080919000877F80939000089560
:100AE0008091A0008F7707C08091A0008F7D03C008
:100AF0008091A000877F8093A000089580912001BD
:100B00008F7707C0809120018F7D03C080912001E5
:100B1000877F809320010895CF93DF9390E0FC01BD
:100B2000E25BFE4F2491FC01EC56FE4F849188233A
:100B300061F190E0880F991FFC01EC50FE4FC591C8
:100B4000D491FC01E652FE4FA591B491611109C008
:100B50009FB7F8948881209582238883EC912E2377
:100B60000BC0623061F49FB7F8943881822F809572
:100B700083238883EC912E2B2C939FBF06C08FB7C5
:100B8000F894E8812E2B28838FBFDF91CF910895B1
:100B90001F93CF93DF93282F30E0F901E85FFE4FDA
:100BA0008491F901E25BFE4FD491F901EC56FE4FBE
:100BB000C491CC23C1F0162F811159DFEC2FF0E046
:100BC000EE0FFF1FE652FE4FA591B4918FB7F89438
:100BD000111105C09C91ED2FE095E92302C0EC9125
:100BE000ED2BEC938FBFDF91CF911F910895A1E280
:100BF0001A2EAA1BBB1BFD010DC0AA1FBB1FEE1F97
:100C0000FF1FA217B307E407F50720F0A21BB30BE1
:100C1000E40BF50B661F771F881F991F1A9469F75D
:100C200060957095809590959B01AC01BD01CF01B9
:100C30000895EE0FFF1F881F8BBF0790F691E02DE0
:060C40001994F894FFCFA7
:100C460056616C6F72203D20000000000049029240
:100C5600039D01B701A90128020D0A006E616E000D
:0A0C6600696E66006F7666002E00CE
:00000001FF
