:020000020000FC
:0200000002C03C
:100004000BC003E000936900E89A789411E014B9F6
:1000140010E015B90C940A00109515B90E94570008
:100024000E9457000E9457000E9457000E945700E8
:100034000E9457000E9457000E9457000E945700D8
:100044000E9457000E9457000E9457000E945700C8
:100054000E9457000E9457000E9457000E945700B8
:100064000E9457000E9457000E9457000E945700A8
:100074000E9457000E9457000E9457000E94570098
:100084000E9457000E9457000E9457000E94570088
:100094000E9457000E9457000E9457000E94570078
:1000A4000E9457000E945700189530E0A0E0B0E08D
:1000B4004D915D9103E0033001F0050F0C93089519
:00000001FF
