S00F00004C4142324C454F2E7372656334
S113000071C000008EC000008CC000008AC00000D7
S113001088C0000086C0000084C0000082C00000C8
S113002080C000007EC000007CC000007AC00000D8
S113003078C0000076C0000074C0000072C00000E8
S113004070C000006EC000006CC000006AC00000F8
S11300507BC0000066C0000064C0000062C00000F5
S113006060C000005EC000005CC000005AC0000018
S113007058C0000056C0000054C0000052C0000028
S113008050C000004EC000004CC000004AC0000038
S113009048C0000046C0000044C0000042C0000048
S11300A040C000003EC000003CC000003AC0000058
S11300B038C0000036C0000034C0000032C0000068
S11300C030C000002EC000002CC000002AC0000078
S11300D028C0000026C0000024C0000022C0000088
S11300E020C0000011241FBECFEFD1E2DEBFCDBF80
S11300F000E00CBF12E0A0E0B2E0EAEBF2E000E0C6
S11301000BBF02C007900D92A030B107D9F722E0CF
S1130110A0E0B2E001C01D92A330B207E1F7B3D072
S1130120CAC06ECF48E65FEF5A95F1F74A95D9F702
S1130130089515B8F7DF84E085B9089581E085B99D
S1130140F1DF85E085B908951F920F920FB60F92E3
S113015011240BB60F922F933F934F935F936F939A
S11301607F938F939F93AF93BF93EF93FF9380916C
S11301700102E6ECF0E08083809100028083EAE7EC
S1130180F0E080818064808380917900880F9DEC09
S1130190899F912D1124969596959695392F330F15
S11301A0232F220F220F230F821B20E1929F800D09
S11301B011248093020280910202807F80930102C5
S11301C0809102028F70809300029091010220912D
S11301D0010230E1939FC0011124922F92959F70E8
S11301E0892B8093010280910002805D809300023C
S11301F080910102805D80930102A0DF8091010261
S113020088B990DF9BDF8091000288B98BDF8ADF99
S113021090DF86E088B98DDF82E088B983DFFF91C3
S1130220EF91BF91AF919F918F917F916F915F916A
S11302304F913F912F910F900BBE0F900FBE0F90D7
S11302401F9018958FEF87B984B973DF80E388B95D
S113025069DF6FDF8EE088B965DF6BDF81E088B925
S113026061DF67DF87E088B95DCF089588E1809317
S1130270C10086E08093C20088E090E09093C500BE
S11302808093C400089585E08093810086EF809375
S1130290840082EC8093850081E080936F00D2DF3C
S11302A0E5DF80E680937C0087E880937A001092F3
S10D02B07B007894FFCFF894FFCF91
S9030000FC
