:020000020000FC
:040000000C94340028
:04005C000C945E00A2
:100064000C9499000FEF04B902E00DB900E000BB55
:1000740000E600937C0007E800937A0005E005BDE4
:1000840001E000936E00789400E90093C10006E05B
:100094000093C20007E60093C40011E61093070022
:1000A40023E7209308000FEE06BD00917A00006458
:1000B40000937A000C945C0000917A0004FF0C9485
:1000C4005E009091780000917900202F2695269566
:1000D40030910400532F369540910500469546957E
:1000E400230F240F25B98614A1F0761449F01FEECE
:1000F40016BD10917A00106410937A000C94940049
:100104001FEE16BD10917A00106410937A000C94BF
:1001140094001FED16BD10917A00106410937A00BC
:100124000C949400509305000093040018950091DA
:10013400C00007FF0C9499000091C60000930600CC
:0E01440000E00093C00000E20093C000189598
:00000001FF
