:020000020000FC
:040000000C942A0032
:100050000C945B004FEF44B947B90E94B90000E32C
:1000600008B90E94CE000E94B9002EE028B90E9473
:10007000CE000E94B90011E018B90E94CE000E9483
:10008000B90037E038B90E94CE0000E0009380004C
:1000900014E01093810021E020936F00789400E633
:1000A00000937C0007E800937A0000E000937B0057
:1000B00000000C94580000917A00006400937A00CC
:1000C00000917A0006FD0C94600000917900000F09
:1000D00055270A5010F0505FFCCF065F050F0295C0
:1000E0003FE040EF50E060E0502F602F5323642347
:1000F000629580E3580F680F0E94C700A4E5A8B975
:100100000E94CE000E94C700B5E4B8B90E94CE009C
:100110000E94C700CDE4C8B90E94CE000E94C7006B
:10012000D0E5D8B90E94CE000E94C700EDE3E8B93F
:100130000E94CE000E94C00058B90E94CE000E94CA
:10014000C00068B90E94CE000E94CE000E94B90093
:1001500036E00E94CE0038B90E94B90002E008B92A
:100160000E94CE000E94B90036E038B90E94CE004D
:10017000189550E064E055B90E94CE0065B9089525
:1001800091E005E095B90E94CE0005B90895A1E07F
:1001900005E0A5B90E94CE0005B908957EE28EE281
:0A01A0008A95F1F77A95D9F70895D2
:00000001FF
