:020000020000FC
:040000000C9430002C
:10005C000C943E0001E004B905E005BD01E00093FD
:10006C006E00789401E005B910E016BD0C943C00CC
:10007C00009505B910E016BD0E9475020E9475022C
:10008C000E9475020E9475020E9475020E94750200
:10009C000E9475020E9475020E9475020E947502F0
:1000AC000E9475020E9475020E9475020E947502E0
:1000BC000E9475020E9475020E9475020E947502D0
:1004DC000E9475020E9475020E94750218952FEFFA
:1004EC002A95F1F73FEF3A95F1F73FEF3A95F1F78F
:1004FC003FEF3A95F1F73FEF3A95F1F73FEF3A9529
:0A050C00F1F7230F2530231B08959B
:00000001FF
