:020000020000FC
:040000000C94380024
:10006C000C94660002E00DB9F894F8940091C0006D
:10007C00097F0093C0000091C1000C7F0093C10068
:10008C0002E00093C00008E40093C1000091C1009D
:10009C0006E00093C2000FEC0093C400789400912A
:1000AC00C00005FF0C94550001E00093C6000091C0
:1000BC00C6000091C0000A7F0093C0000C9464003D
:1000CC000091C00005FF0C94660001E00093C6008F
:0C00DC000091C0000A7F0093C00018953E
:00000001FF
